{
  "contractName": "Voting",
  "abi": [
    {
      "inputs": [
        {
          "internalType": "string",
          "name": "_name",
          "type": "string"
        }
      ],
      "payable": false,
      "stateMutability": "nonpayable",
      "type": "constructor"
    },
    {
      "constant": true,
      "inputs": [
        {
          "internalType": "uint256",
          "name": "",
          "type": "uint256"
        }
      ],
      "name": "candidates",
      "outputs": [
        {
          "internalType": "uint256",
          "name": "id",
          "type": "uint256"
        },
        {
          "internalType": "string",
          "name": "name",
          "type": "string"
        },
        {
          "internalType": "uint256",
          "name": "voteCount",
          "type": "uint256"
        }
      ],
      "payable": false,
      "stateMutability": "view",
      "type": "function"
    },
    {
      "constant": true,
      "inputs": [],
      "name": "electionName",
      "outputs": [
        {
          "internalType": "string",
          "name": "",
          "type": "string"
        }
      ],
      "payable": false,
      "stateMutability": "view",
      "type": "function"
    },
    {
      "constant": true,
      "inputs": [],
      "name": "owner",
      "outputs": [
        {
          "internalType": "address",
          "name": "",
          "type": "address"
        }
      ],
      "payable": false,
      "stateMutability": "view",
      "type": "function"
    },
    {
      "constant": true,
      "inputs": [],
      "name": "totalVotes",
      "outputs": [
        {
          "internalType": "uint256",
          "name": "",
          "type": "uint256"
        }
      ],
      "payable": false,
      "stateMutability": "view",
      "type": "function"
    },
    {
      "constant": true,
      "inputs": [
        {
          "internalType": "address",
          "name": "",
          "type": "address"
        }
      ],
      "name": "voters",
      "outputs": [
        {
          "internalType": "bool",
          "name": "voted",
          "type": "bool"
        },
        {
          "internalType": "uint256",
          "name": "vote",
          "type": "uint256"
        },
        {
          "internalType": "bool",
          "name": "authorized",
          "type": "bool"
        }
      ],
      "payable": false,
      "stateMutability": "view",
      "type": "function"
    },
    {
      "constant": false,
      "inputs": [
        {
          "internalType": "string",
          "name": "_name",
          "type": "string"
        }
      ],
      "name": "addCandidate",
      "outputs": [],
      "payable": false,
      "stateMutability": "nonpayable",
      "type": "function"
    },
    {
      "constant": false,
      "inputs": [
        {
          "internalType": "address",
          "name": "_person",
          "type": "address"
        }
      ],
      "name": "authorize",
      "outputs": [],
      "payable": false,
      "stateMutability": "nonpayable",
      "type": "function"
    },
    {
      "constant": false,
      "inputs": [
        {
          "internalType": "uint256",
          "name": "_voteIndex",
          "type": "uint256"
        }
      ],
      "name": "vote",
      "outputs": [],
      "payable": false,
      "stateMutability": "nonpayable",
      "type": "function"
    },
    {
      "constant": true,
      "inputs": [],
      "name": "getCandidateIds",
      "outputs": [
        {
          "internalType": "uint256[]",
          "name": "",
          "type": "uint256[]"
        }
      ],
      "payable": false,
      "stateMutability": "view",
      "type": "function"
    },
    {
      "constant": true,
      "inputs": [],
      "name": "getCandidateNames",
      "outputs": [
        {
          "internalType": "bytes",
          "name": "",
          "type": "bytes"
        }
      ],
      "payable": false,
      "stateMutability": "view",
      "type": "function"
    },
    {
      "constant": true,
      "inputs": [],
      "name": "getCandidateVoteCounts",
      "outputs": [
        {
          "internalType": "uint256[]",
          "name": "",
          "type": "uint256[]"
        }
      ],
      "payable": false,
      "stateMutability": "view",
      "type": "function"
    },
    {
      "constant": true,
      "inputs": [],
      "name": "getTotalVotes",
      "outputs": [
        {
          "internalType": "uint256",
          "name": "",
          "type": "uint256"
        }
      ],
      "payable": false,
      "stateMutability": "view",
      "type": "function"
    }
  ],
  "bytecode": "0x60806040523480156200001157600080fd5b506040516200116338038062001163833981810160405260208110156200003757600080fd5b81019080805160405193929190846401000000008211156200005857600080fd5b838201915060208201858111156200006f57600080fd5b82518660018202830111640100000000821117156200008d57600080fd5b8083526020830192505050908051906020019080838360005b83811015620000c3578082015181840152602081019050620000a6565b50505050905090810190601f168015620000f15780820380516001836020036101000a031916815260200191505b50604052505050336000806101000a81548173ffffffffffffffffffffffffffffffffffffffff021916908373ffffffffffffffffffffffffffffffffffffffff16021790555080600190805190602001906200015092919062000158565b505062000207565b828054600181600116156101000203166002900490600052602060002090601f016020900481019282601f106200019b57805160ff1916838001178555620001cc565b82800160010185558215620001cc579182015b82811115620001cb578251825591602001919060010190620001ae565b5b509050620001db9190620001df565b5090565b6200020491905b8082111562000200576000816000905550600101620001e6565b5090565b90565b610f4c80620002176000396000f3fe608060405234801561001057600080fd5b50600436106100b45760003560e01c80638da5cb5b116100715780638da5cb5b1461037b5780639a0e7d66146103c5578063a3ec138d146103e3578063a3ffa43514610451578063b6a5d7de146104b0578063bec0fde2146104f4576100b4565b80630121b93f146100b95780630d15fd77146100e75780633477ee2e14610105578063462e91ec146101ba57806372b9d6161461027557806385e8e7a7146102f8575b600080fd5b6100e5600480360360208110156100cf57600080fd5b8101908080359060200190929190505050610553565b005b6100ef6107bb565b6040518082815260200191505060405180910390f35b6101316004803603602081101561011b57600080fd5b81019080803590602001909291905050506107c1565b6040518084815260200180602001838152602001828103825284818151815260200191508051906020019080838360005b8381101561017d578082015181840152602081019050610162565b50505050905090810190601f1680156101aa5780820380516001836020036101000a031916815260200191505b5094505050505060405180910390f35b610273600480360360208110156101d057600080fd5b81019080803590602001906401000000008111156101ed57600080fd5b8201836020820111156101ff57600080fd5b8035906020019184600183028401116401000000008311171561022157600080fd5b91908080601f016020809104026020016040519081016040528093929190818152602001838380828437600081840152601f19601f820116905080830192505050505050509192919290505050610890565b005b61027d6109d7565b6040518080602001828103825283818151815260200191508051906020019080838360005b838110156102bd5780820151818401526020810190506102a2565b50505050905090810190601f1680156102ea5780820380516001836020036101000a031916815260200191505b509250505060405180910390f35b610300610b0f565b6040518080602001828103825283818151815260200191508051906020019080838360005b83811015610340578082015181840152602081019050610325565b50505050905090810190601f16801561036d5780820380516001836020036101000a031916815260200191505b509250505060405180910390f35b610383610bad565b604051808273ffffffffffffffffffffffffffffffffffffffff1673ffffffffffffffffffffffffffffffffffffffff16815260200191505060405180910390f35b6103cd610bd2565b6040518082815260200191505060405180910390f35b610425600480360360208110156103f957600080fd5b81019080803573ffffffffffffffffffffffffffffffffffffffff169060200190929190505050610bdc565b604051808415151515815260200183815260200182151515158152602001935050505060405180910390f35b610459610c20565b6040518080602001828103825283818151815260200191508051906020019060200280838360005b8381101561049c578082015181840152602081019050610481565b505050509050019250505060405180910390f35b6104f2600480360360208110156104c657600080fd5b81019080803573ffffffffffffffffffffffffffffffffffffffff169060200190929190505050610cb9565b005b6104fc610dd9565b6040518080602001828103825283818151815260200191508051906020019060200280838360005b8381101561053f578082015181840152602081019050610524565b505050509050019250505060405180910390f35b600260003373ffffffffffffffffffffffffffffffffffffffff1673ffffffffffffffffffffffffffffffffffffffff16815260200190815260200160002060000160009054906101000a900460ff1615610616576040517f08c379a00000000000000000000000000000000000000000000000000000000081526004018080602001828103825260168152602001807f596f75206861766520616c726561647920766f7465640000000000000000000081525060200191505060405180910390fd5b600260003373ffffffffffffffffffffffffffffffffffffffff1673ffffffffffffffffffffffffffffffffffffffff16815260200190815260200160002060020160009054906101000a900460ff166106d8576040517f08c379a000000000000000000000000000000000000000000000000000000000815260040180806020018281038252601e8152602001807f596f7520617265206e6f7420617574686f72697a656420746f20766f7465000081525060200191505060405180910390fd5b80600260003373ffffffffffffffffffffffffffffffffffffffff1673ffffffffffffffffffffffffffffffffffffffff168152602001908152602001600020600101819055506001600260003373ffffffffffffffffffffffffffffffffffffffff1673ffffffffffffffffffffffffffffffffffffffff16815260200190815260200160002060000160006101000a81548160ff02191690831515021790555060016003828154811061078957fe5b906000526020600020906003020160020160008282540192505081905550600160046000828254019250508190555050565b60045481565b600381815481106107ce57fe5b9060005260206000209060030201600091509050806000015490806001018054600181600116156101000203166002900480601f0160208091040260200160405190810160405280929190818152602001828054600181600116156101000203166002900480156108805780601f1061085557610100808354040283529160200191610880565b820191906000526020600020905b81548152906001019060200180831161086357829003601f168201915b5050505050908060020154905083565b6000809054906101000a900473ffffffffffffffffffffffffffffffffffffffff1673ffffffffffffffffffffffffffffffffffffffff163373ffffffffffffffffffffffffffffffffffffffff1614610952576040517f08c379a00000000000000000000000000000000000000000000000000000000081526004018080602001828103825260138152602001807f43616c6c6572206973206e6f74206f776e65720000000000000000000000000081525060200191505060405180910390fd5b6003604051806060016040528060038054905081526020018381526020016000815250908060018154018082558091505090600182039060005260206000209060030201600090919290919091506000820151816000015560208201518160010190805190602001906109c6929190610e72565b506040820151816002015550505050565b60608060008090505b600380549050811015610b075781600382815481106109fb57fe5b90600052602060002090600302016001016040516020018083805190602001908083835b60208310610a425780518252602082019150602081019050602083039250610a1f565b6001836020036101000a03801982511681845116808217855250505050505090500182805460018160011615610100020316600290048015610abb5780601f10610a99576101008083540402835291820191610abb565b820191906000526020600020905b815481529060010190602001808311610aa7575b5050807f3b0000000000000000000000000000000000000000000000000000000000000081525060010192505050604051602081830303815290604052915080806001019150506109e0565b508091505090565b60018054600181600116156101000203166002900480601f016020809104026020016040519081016040528092919081815260200182805460018160011615610100020316600290048015610ba55780601f10610b7a57610100808354040283529160200191610ba5565b820191906000526020600020905b815481529060010190602001808311610b8857829003601f168201915b505050505081565b6000809054906101000a900473ffffffffffffffffffffffffffffffffffffffff1681565b6000600454905090565b60026020528060005260406000206000915090508060000160009054906101000a900460ff16908060010154908060020160009054906101000a900460ff16905083565b606080600380549050604051908082528060200260200182016040528015610c575781602001602082028038833980820191505090505b50905060008090505b600380549050811015610cb15760038181548110610c7a57fe5b906000526020600020906003020160020154828281518110610c9857fe5b6020026020010181815250508080600101915050610c60565b508091505090565b6000809054906101000a900473ffffffffffffffffffffffffffffffffffffffff1673ffffffffffffffffffffffffffffffffffffffff163373ffffffffffffffffffffffffffffffffffffffff1614610d7b576040517f08c379a00000000000000000000000000000000000000000000000000000000081526004018080602001828103825260138152602001807f43616c6c6572206973206e6f74206f776e65720000000000000000000000000081525060200191505060405180910390fd5b6001600260008373ffffffffffffffffffffffffffffffffffffffff1673ffffffffffffffffffffffffffffffffffffffff16815260200190815260200160002060020160006101000a81548160ff02191690831515021790555050565b606080600380549050604051908082528060200260200182016040528015610e105781602001602082028038833980820191505090505b50905060008090505b600380549050811015610e6a5760038181548110610e3357fe5b906000526020600020906003020160000154828281518110610e5157fe5b6020026020010181815250508080600101915050610e19565b508091505090565b828054600181600116156101000203166002900490600052602060002090601f016020900481019282601f10610eb357805160ff1916838001178555610ee1565b82800160010185558215610ee1579182015b82811115610ee0578251825591602001919060010190610ec5565b5b509050610eee9190610ef2565b5090565b610f1491905b80821115610f10576000816000905550600101610ef8565b5090565b9056fea265627a7a72315820d610525f27cdb797282a05adf08bf205bb78b865a98856e54883f2fbb09c634c64736f6c63430005100032",
  "source": "// SPDX-License-Identifier: MIT\r\npragma solidity ^0.5.16;\r\n\r\ncontract Voting {\r\n    struct Voter {\r\n        bool voted;\r\n        uint vote;\r\n        bool authorized;\r\n    }\r\n\r\n    struct Candidate {\r\n        uint id;\r\n        string name;\r\n        uint voteCount;\r\n    }\r\n\r\n    address public owner;\r\n    string public electionName;\r\n\r\n    mapping(address => Voter) public voters;\r\n    Candidate[] public candidates;\r\n    uint public totalVotes;\r\n\r\n    modifier ownerOnly() {\r\n        require(msg.sender == owner, \"Caller is not owner\");\r\n        _;\r\n    }\r\n\r\n    constructor(string memory _name) public {\r\n        owner = msg.sender;\r\n        electionName = _name;\r\n    }\r\n\r\n    function addCandidate(string memory _name) public ownerOnly {\r\n        candidates.push(Candidate(candidates.length, _name, 0));\r\n    }\r\n\r\n    function authorize(address _person) public ownerOnly {\r\n        voters[_person].authorized = true;\r\n    }\r\n\r\n    function vote(uint _voteIndex) public {\r\n        require(!voters[msg.sender].voted, \"You have already voted\");\r\n        require(voters[msg.sender].authorized, \"You are not authorized to vote\");\r\n\r\n        voters[msg.sender].vote = _voteIndex;\r\n        voters[msg.sender].voted = true;\r\n\r\n        candidates[_voteIndex].voteCount += 1;\r\n        totalVotes += 1;\r\n    }\r\n\r\n    function getCandidateIds() public view returns (uint[] memory) {\r\n        uint[] memory ids = new uint[](candidates.length);\r\n        for (uint i = 0; i < candidates.length; i++) {\r\n            ids[i] = candidates[i].id;\r\n        }\r\n        return ids;\r\n    }\r\n\r\n    function getCandidateNames() public view returns (bytes memory) {\r\n        bytes memory names;\r\n        for (uint i = 0; i < candidates.length; i++) {\r\n            names = abi.encodePacked(names, candidates[i].name, \";\");\r\n        }\r\n        return names;\r\n    }\r\n\r\n    function getCandidateVoteCounts() public view returns (uint[] memory) {\r\n        uint[] memory voteCounts = new uint[](candidates.length);\r\n        for (uint i = 0; i < candidates.length; i++) {\r\n            voteCounts[i] = candidates[i].voteCount;\r\n        }\r\n        return voteCounts;\r\n    }\r\n\r\n    function getTotalVotes() public view returns (uint) {\r\n        return totalVotes;\r\n    }\r\n}\r\n",
  "sourcePath": "C:\\Users\\acer\\voting-system\\contracts\\Voting.sol",
  "compiler": {
    "name": "solc",
    "version": "0.5.16+commit.9c3226ce.Emscripten.clang"
  },
  "schemaVersion": "3.4.3",
  "updatedAt": "2024-06-28T11:28:56.363Z",
  "devdoc": {
    "methods": {}
  },
  "userdoc": {
    "methods": {}
  }
}